{
  "_format": "hh-sol-artifact-1",
  "contractName": "LiquidityPool",
  "sourceName": "contracts/LiquidityPool.sol",
  "abi": [
    {
      "inputs": [
        {
          "internalType": "address",
          "name": "usdcAddress",
          "type": "address"
        },
        {
          "internalType": "address",
          "name": "bltmAddress",
          "type": "address"
        },
        {
          "internalType": "uint256",
          "name": "initialRate",
          "type": "uint256"
        }
      ],
      "stateMutability": "nonpayable",
      "type": "constructor"
    },
    {
      "inputs": [],
      "name": "AccessControlBadConfirmation",
      "type": "error"
    },
    {
      "inputs": [
        {
          "internalType": "address",
          "name": "account",
          "type": "address"
        },
        {
          "internalType": "bytes32",
          "name": "neededRole",
          "type": "bytes32"
        }
      ],
      "name": "AccessControlUnauthorizedAccount",
      "type": "error"
    },
    {
      "inputs": [],
      "name": "EnforcedPause",
      "type": "error"
    },
    {
      "inputs": [],
      "name": "ExpectedPause",
      "type": "error"
    },
    {
      "inputs": [],
      "name": "MathOverflowedMulDiv",
      "type": "error"
    },
    {
      "anonymous": false,
      "inputs": [
        {
          "indexed": false,
          "internalType": "uint256",
          "name": "newRate",
          "type": "uint256"
        }
      ],
      "name": "ExchangeRateUpdated",
      "type": "event"
    },
    {
      "anonymous": false,
      "inputs": [
        {
          "indexed": false,
          "internalType": "address",
          "name": "account",
          "type": "address"
        }
      ],
      "name": "Paused",
      "type": "event"
    },
    {
      "anonymous": false,
      "inputs": [
        {
          "indexed": true,
          "internalType": "bytes32",
          "name": "role",
          "type": "bytes32"
        },
        {
          "indexed": true,
          "internalType": "bytes32",
          "name": "previousAdminRole",
          "type": "bytes32"
        },
        {
          "indexed": true,
          "internalType": "bytes32",
          "name": "newAdminRole",
          "type": "bytes32"
        }
      ],
      "name": "RoleAdminChanged",
      "type": "event"
    },
    {
      "anonymous": false,
      "inputs": [
        {
          "indexed": true,
          "internalType": "bytes32",
          "name": "role",
          "type": "bytes32"
        },
        {
          "indexed": true,
          "internalType": "address",
          "name": "account",
          "type": "address"
        },
        {
          "indexed": true,
          "internalType": "address",
          "name": "sender",
          "type": "address"
        }
      ],
      "name": "RoleGranted",
      "type": "event"
    },
    {
      "anonymous": false,
      "inputs": [
        {
          "indexed": true,
          "internalType": "bytes32",
          "name": "role",
          "type": "bytes32"
        },
        {
          "indexed": true,
          "internalType": "address",
          "name": "account",
          "type": "address"
        },
        {
          "indexed": true,
          "internalType": "address",
          "name": "sender",
          "type": "address"
        }
      ],
      "name": "RoleRevoked",
      "type": "event"
    },
    {
      "anonymous": false,
      "inputs": [
        {
          "indexed": false,
          "internalType": "uint256",
          "name": "newTax",
          "type": "uint256"
        }
      ],
      "name": "RoyaltyTaxUpdated",
      "type": "event"
    },
    {
      "anonymous": false,
      "inputs": [
        {
          "indexed": true,
          "internalType": "address",
          "name": "user",
          "type": "address"
        },
        {
          "indexed": false,
          "internalType": "uint256",
          "name": "bltmAmount",
          "type": "uint256"
        },
        {
          "indexed": false,
          "internalType": "uint256",
          "name": "usdcAmount",
          "type": "uint256"
        }
      ],
      "name": "SwapBLTMForUSDC",
      "type": "event"
    },
    {
      "anonymous": false,
      "inputs": [
        {
          "indexed": true,
          "internalType": "address",
          "name": "user",
          "type": "address"
        },
        {
          "indexed": false,
          "internalType": "uint256",
          "name": "usdcAmount",
          "type": "uint256"
        },
        {
          "indexed": false,
          "internalType": "uint256",
          "name": "bltmAmount",
          "type": "uint256"
        }
      ],
      "name": "SwapUSDCForBLTM",
      "type": "event"
    },
    {
      "anonymous": false,
      "inputs": [
        {
          "indexed": true,
          "internalType": "address",
          "name": "owner",
          "type": "address"
        },
        {
          "indexed": false,
          "internalType": "uint256",
          "name": "amount",
          "type": "uint256"
        }
      ],
      "name": "USDCDeposited",
      "type": "event"
    },
    {
      "anonymous": false,
      "inputs": [
        {
          "indexed": true,
          "internalType": "address",
          "name": "owner",
          "type": "address"
        },
        {
          "indexed": false,
          "internalType": "uint256",
          "name": "amount",
          "type": "uint256"
        }
      ],
      "name": "USDCWithdrawn",
      "type": "event"
    },
    {
      "anonymous": false,
      "inputs": [
        {
          "indexed": false,
          "internalType": "address",
          "name": "account",
          "type": "address"
        }
      ],
      "name": "Unpaused",
      "type": "event"
    },
    {
      "inputs": [],
      "name": "DEFAULT_ADMIN_ROLE",
      "outputs": [
        {
          "internalType": "bytes32",
          "name": "",
          "type": "bytes32"
        }
      ],
      "stateMutability": "view",
      "type": "function"
    },
    {
      "inputs": [],
      "name": "OWNER_ROLE",
      "outputs": [
        {
          "internalType": "bytes32",
          "name": "",
          "type": "bytes32"
        }
      ],
      "stateMutability": "view",
      "type": "function"
    },
    {
      "inputs": [],
      "name": "bltm",
      "outputs": [
        {
          "internalType": "contract BLTM",
          "name": "",
          "type": "address"
        }
      ],
      "stateMutability": "view",
      "type": "function"
    },
    {
      "inputs": [
        {
          "internalType": "uint256",
          "name": "usdcAmount",
          "type": "uint256"
        }
      ],
      "name": "depositUsdc",
      "outputs": [],
      "stateMutability": "nonpayable",
      "type": "function"
    },
    {
      "inputs": [],
      "name": "exchangeRate",
      "outputs": [
        {
          "internalType": "uint256",
          "name": "",
          "type": "uint256"
        }
      ],
      "stateMutability": "view",
      "type": "function"
    },
    {
      "inputs": [],
      "name": "getExchangeRate",
      "outputs": [
        {
          "internalType": "uint256",
          "name": "",
          "type": "uint256"
        }
      ],
      "stateMutability": "view",
      "type": "function"
    },
    {
      "inputs": [],
      "name": "getPoolPairAddresses",
      "outputs": [
        {
          "internalType": "address",
          "name": "",
          "type": "address"
        },
        {
          "internalType": "address",
          "name": "",
          "type": "address"
        }
      ],
      "stateMutability": "view",
      "type": "function"
    },
    {
      "inputs": [
        {
          "internalType": "bytes32",
          "name": "role",
          "type": "bytes32"
        }
      ],
      "name": "getRoleAdmin",
      "outputs": [
        {
          "internalType": "bytes32",
          "name": "",
          "type": "bytes32"
        }
      ],
      "stateMutability": "view",
      "type": "function"
    },
    {
      "inputs": [],
      "name": "getRoyaltyTax",
      "outputs": [
        {
          "internalType": "uint256",
          "name": "",
          "type": "uint256"
        }
      ],
      "stateMutability": "view",
      "type": "function"
    },
    {
      "inputs": [
        {
          "internalType": "bytes32",
          "name": "role",
          "type": "bytes32"
        },
        {
          "internalType": "address",
          "name": "account",
          "type": "address"
        }
      ],
      "name": "grantRole",
      "outputs": [],
      "stateMutability": "nonpayable",
      "type": "function"
    },
    {
      "inputs": [
        {
          "internalType": "bytes32",
          "name": "role",
          "type": "bytes32"
        },
        {
          "internalType": "address",
          "name": "account",
          "type": "address"
        }
      ],
      "name": "hasRole",
      "outputs": [
        {
          "internalType": "bool",
          "name": "",
          "type": "bool"
        }
      ],
      "stateMutability": "view",
      "type": "function"
    },
    {
      "inputs": [],
      "name": "pause",
      "outputs": [],
      "stateMutability": "nonpayable",
      "type": "function"
    },
    {
      "inputs": [],
      "name": "paused",
      "outputs": [
        {
          "internalType": "bool",
          "name": "",
          "type": "bool"
        }
      ],
      "stateMutability": "view",
      "type": "function"
    },
    {
      "inputs": [
        {
          "internalType": "bytes32",
          "name": "role",
          "type": "bytes32"
        },
        {
          "internalType": "address",
          "name": "callerConfirmation",
          "type": "address"
        }
      ],
      "name": "renounceRole",
      "outputs": [],
      "stateMutability": "nonpayable",
      "type": "function"
    },
    {
      "inputs": [
        {
          "internalType": "bytes32",
          "name": "role",
          "type": "bytes32"
        },
        {
          "internalType": "address",
          "name": "account",
          "type": "address"
        }
      ],
      "name": "revokeRole",
      "outputs": [],
      "stateMutability": "nonpayable",
      "type": "function"
    },
    {
      "inputs": [],
      "name": "royaltyTax",
      "outputs": [
        {
          "internalType": "uint256",
          "name": "",
          "type": "uint256"
        }
      ],
      "stateMutability": "view",
      "type": "function"
    },
    {
      "inputs": [
        {
          "internalType": "uint256",
          "name": "newTax",
          "type": "uint256"
        }
      ],
      "name": "setRoyaltyTax",
      "outputs": [],
      "stateMutability": "nonpayable",
      "type": "function"
    },
    {
      "inputs": [
        {
          "internalType": "bytes4",
          "name": "interfaceId",
          "type": "bytes4"
        }
      ],
      "name": "supportsInterface",
      "outputs": [
        {
          "internalType": "bool",
          "name": "",
          "type": "bool"
        }
      ],
      "stateMutability": "view",
      "type": "function"
    },
    {
      "inputs": [
        {
          "internalType": "uint256",
          "name": "bltmAmount",
          "type": "uint256"
        }
      ],
      "name": "swapBltmForUsdc",
      "outputs": [],
      "stateMutability": "nonpayable",
      "type": "function"
    },
    {
      "inputs": [
        {
          "internalType": "uint256",
          "name": "usdcAmount",
          "type": "uint256"
        }
      ],
      "name": "swapUsdcForBltm",
      "outputs": [],
      "stateMutability": "nonpayable",
      "type": "function"
    },
    {
      "inputs": [],
      "name": "unpause",
      "outputs": [],
      "stateMutability": "nonpayable",
      "type": "function"
    },
    {
      "inputs": [
        {
          "internalType": "uint256",
          "name": "rate",
          "type": "uint256"
        }
      ],
      "name": "updateExchangeRate",
      "outputs": [],
      "stateMutability": "nonpayable",
      "type": "function"
    },
    {
      "inputs": [],
      "name": "usdc",
      "outputs": [
        {
          "internalType": "contract IERC20",
          "name": "",
          "type": "address"
        }
      ],
      "stateMutability": "view",
      "type": "function"
    },
    {
      "inputs": [
        {
          "internalType": "uint256",
          "name": "usdcAmount",
          "type": "uint256"
        }
      ],
      "name": "withdrawUsdc",
      "outputs": [],
      "stateMutability": "nonpayable",
      "type": "function"
    }
  ],
  "bytecode": "0x608060405260c86004553480156200001657600080fd5b50604051620023c8380380620023c883398181016040528101906200003c919062000475565b6000600160006101000a81548160ff021916908315150217905550600073ffffffffffffffffffffffffffffffffffffffff168373ffffffffffffffffffffffffffffffffffffffff1603620000c9576040517f08c379a0000000000000000000000000000000000000000000000000000000008152600401620000c09062000532565b60405180910390fd5b600073ffffffffffffffffffffffffffffffffffffffff168273ffffffffffffffffffffffffffffffffffffffff16036200013b576040517f08c379a00000000000000000000000000000000000000000000000000000000081526004016200013290620005a4565b60405180910390fd5b6000811162000181576040517f08c379a000000000000000000000000000000000000000000000000000000000815260040162000178906200063c565b60405180910390fd5b826001806101000a81548173ffffffffffffffffffffffffffffffffffffffff021916908373ffffffffffffffffffffffffffffffffffffffff16021790555081600260006101000a81548173ffffffffffffffffffffffffffffffffffffffff021916908373ffffffffffffffffffffffffffffffffffffffff160217905550806003819055506200021e6000801b336200025b60201b60201c565b50620002517fb19546dff01e856fb3f010c267a7b1c60363cf8a4664e21cc89c26224620214e336200025b60201b60201c565b505050506200065e565b60006200026f83836200035e60201b60201c565b6200035357600160008085815260200190815260200160002060000160008473ffffffffffffffffffffffffffffffffffffffff1673ffffffffffffffffffffffffffffffffffffffff16815260200190815260200160002060006101000a81548160ff021916908315150217905550620002ef620003c860201b60201c565b73ffffffffffffffffffffffffffffffffffffffff168273ffffffffffffffffffffffffffffffffffffffff16847f2f8788117e7eff1d82e926ec794901d17c78024a50270940304540a733656f0d60405160405180910390a46001905062000358565b600090505b92915050565b600080600084815260200190815260200160002060000160008373ffffffffffffffffffffffffffffffffffffffff1673ffffffffffffffffffffffffffffffffffffffff16815260200190815260200160002060009054906101000a900460ff16905092915050565b600033905090565b600080fd5b600073ffffffffffffffffffffffffffffffffffffffff82169050919050565b60006200040282620003d5565b9050919050565b6200041481620003f5565b81146200042057600080fd5b50565b600081519050620004348162000409565b92915050565b6000819050919050565b6200044f816200043a565b81146200045b57600080fd5b50565b6000815190506200046f8162000444565b92915050565b600080600060608486031215620004915762000490620003d0565b5b6000620004a18682870162000423565b9350506020620004b48682870162000423565b9250506040620004c7868287016200045e565b9150509250925092565b600082825260208201905092915050565b7f496e76616c696420555344432061646472657373000000000000000000000000600082015250565b60006200051a601483620004d1565b91506200052782620004e2565b602082019050919050565b600060208201905081810360008301526200054d816200050b565b9050919050565b7f496e76616c696420424c544d20746f6b656e2061646472657373000000000000600082015250565b60006200058c601a83620004d1565b9150620005998262000554565b602082019050919050565b60006020820190508181036000830152620005bf816200057d565b9050919050565b7f496e697469616c2065786368616e67652072617465206d75737420626520706f60008201527f7369746976650000000000000000000000000000000000000000000000000000602082015250565b600062000624602683620004d1565b91506200063182620005c6565b604082019050919050565b60006020820190508181036000830152620006578162000615565b9050919050565b611d5a806200066e6000396000f3fe608060405234801561001057600080fd5b50600436106101585760003560e01c80638456cb59116100c3578063c0a71e0e1161007c578063c0a71e0e14610379578063ca1db46614610397578063d547741f146103b3578063e06a5586146103cf578063e58378bb146103ee578063e6aa216c1461040c57610158565b80638456cb59146102c957806391d14854146102d3578063a217fddf14610303578063b6aecb4314610321578063b9ae77a61461033f578063b9e205ae1461035d57610158565b80633ba0b9a9116101155780633ba0b9a91461022d5780633e413bee1461024b5780633f4ba83a146102695780635b06dece146102735780635c975abb1461028f578063605f60cf146102ad57610158565b806301ffc9a71461015d5780630772011e1461018d5780632357928e146101a9578063248a9ca3146101c55780632f2ff15d146101f557806336568abe14610211575b600080fd5b61017760048036038101906101729190611636565b61042a565b604051610184919061167e565b60405180910390f35b6101a760048036038101906101a291906116cf565b6104a4565b005b6101c360048036038101906101be91906116cf565b6106fc565b005b6101df60048036038101906101da9190611732565b6108a2565b6040516101ec919061176e565b60405180910390f35b61020f600480360381019061020a91906117e7565b6108c1565b005b61022b600480360381019061022691906117e7565b6108e3565b005b61023561095e565b6040516102429190611836565b60405180910390f35b610253610964565b60405161026091906118b0565b60405180910390f35b610271610988565b005b61028d600480360381019061028891906116cf565b6109bd565b005b610297610b61565b6040516102a4919061167e565b60405180910390f35b6102c760048036038101906102c291906116cf565b610b78565b005b6102d1610c31565b005b6102ed60048036038101906102e891906117e7565b610c66565b6040516102fa919061167e565b60405180910390f35b61030b610cd0565b604051610318919061176e565b60405180910390f35b610329610cd7565b60405161033691906118ec565b60405180910390f35b610347610cfd565b6040516103549190611836565b60405180910390f35b610377600480360381019061037291906116cf565b610d07565b005b610381610dbe565b60405161038e9190611836565b60405180910390f35b6103b160048036038101906103ac91906116cf565b610dc4565b005b6103cd60048036038101906103c891906117e7565b611033565b005b6103d7611055565b6040516103e5929190611916565b60405180910390f35b6103f66110a4565b604051610403919061176e565b60405180910390f35b6104146110c8565b6040516104219190611836565b60405180910390f35b60007f7965db0b000000000000000000000000000000000000000000000000000000007bffffffffffffffffffffffffffffffffffffffffffffffffffffffff1916827bffffffffffffffffffffffffffffffffffffffffffffffffffffffff1916148061049d575061049c826110d2565b5b9050919050565b6104ac61113c565b600081116104ef576040517f08c379a00000000000000000000000000000000000000000000000000000000081526004016104e69061199c565b60405180910390fd5b60006105008260045461271061117d565b90506000818361051091906119eb565b9050600061052482600354620f424061117d565b905060018054906101000a900473ffffffffffffffffffffffffffffffffffffffff1673ffffffffffffffffffffffffffffffffffffffff166323b872dd3330876040518463ffffffff1660e01b815260040161058393929190611a1f565b6020604051808303816000875af11580156105a2573d6000803e3d6000fd5b505050506040513d601f19601f820116820180604052508101906105c69190611a82565b610605576040517f08c379a00000000000000000000000000000000000000000000000000000000081526004016105fc90611afb565b60405180910390fd5b600260009054906101000a900473ffffffffffffffffffffffffffffffffffffffff1673ffffffffffffffffffffffffffffffffffffffff166340c10f1933836040518363ffffffff1660e01b8152600401610662929190611b1b565b6020604051808303816000875af1158015610681573d6000803e3d6000fd5b505050506040513d601f19601f820116820180604052508101906106a59190611a82565b503373ffffffffffffffffffffffffffffffffffffffff167fec0241c55cd043937cdcc4c303b426e427968330c0dc030b599c4777a86ef49f85836040516106ee929190611b44565b60405180910390a250505050565b7fb19546dff01e856fb3f010c267a7b1c60363cf8a4664e21cc89c26224620214e61072681611284565b61072e61113c565b60008211610771576040517f08c379a00000000000000000000000000000000000000000000000000000000081526004016107689061199c565b60405180910390fd5b60018054906101000a900473ffffffffffffffffffffffffffffffffffffffff1673ffffffffffffffffffffffffffffffffffffffff166323b872dd3330856040518463ffffffff1660e01b81526004016107ce93929190611a1f565b6020604051808303816000875af11580156107ed573d6000803e3d6000fd5b505050506040513d601f19601f820116820180604052508101906108119190611a82565b610850576040517f08c379a000000000000000000000000000000000000000000000000000000000815260040161084790611afb565b60405180910390fd5b3373ffffffffffffffffffffffffffffffffffffffff167f80ecc532cf2e08856601df42646970d676a686d8eeacbfd2038fae4ff288da56836040516108969190611836565b60405180910390a25050565b6000806000838152602001908152602001600020600101549050919050565b6108ca826108a2565b6108d381611284565b6108dd8383611298565b50505050565b6108eb611389565b73ffffffffffffffffffffffffffffffffffffffff168173ffffffffffffffffffffffffffffffffffffffff161461094f576040517f6697b23200000000000000000000000000000000000000000000000000000000815260040160405180910390fd5b6109598282611391565b505050565b60035481565b60018054906101000a900473ffffffffffffffffffffffffffffffffffffffff1681565b7fb19546dff01e856fb3f010c267a7b1c60363cf8a4664e21cc89c26224620214e6109b281611284565b6109ba611483565b50565b7fb19546dff01e856fb3f010c267a7b1c60363cf8a4664e21cc89c26224620214e6109e781611284565b6109ef61113c565b60008211610a32576040517f08c379a0000000000000000000000000000000000000000000000000000000008152600401610a299061199c565b60405180910390fd5b60018054906101000a900473ffffffffffffffffffffffffffffffffffffffff1673ffffffffffffffffffffffffffffffffffffffff1663a9059cbb33846040518363ffffffff1660e01b8152600401610a8d929190611b1b565b6020604051808303816000875af1158015610aac573d6000803e3d6000fd5b505050506040513d601f19601f82011682018060405250810190610ad09190611a82565b610b0f576040517f08c379a0000000000000000000000000000000000000000000000000000000008152600401610b0690611afb565b60405180910390fd5b3373ffffffffffffffffffffffffffffffffffffffff167f2aa7fb97600ea702b454359fc3d02ae9fa48367e7155505d38cee896e5b5aae783604051610b559190611836565b60405180910390a25050565b6000600160009054906101000a900460ff16905090565b7fb19546dff01e856fb3f010c267a7b1c60363cf8a4664e21cc89c26224620214e610ba281611284565b610baa61113c565b612710821115610bef576040517f08c379a0000000000000000000000000000000000000000000000000000000008152600401610be690611bb9565b60405180910390fd5b816004819055507f24a3062501f647f2da671184c41c864636ff8de050b23a4c239048cc2d14e7d582604051610c259190611836565b60405180910390a15050565b7fb19546dff01e856fb3f010c267a7b1c60363cf8a4664e21cc89c26224620214e610c5b81611284565b610c636114e6565b50565b600080600084815260200190815260200160002060000160008373ffffffffffffffffffffffffffffffffffffffff1673ffffffffffffffffffffffffffffffffffffffff16815260200190815260200160002060009054906101000a900460ff16905092915050565b6000801b81565b600260009054906101000a900473ffffffffffffffffffffffffffffffffffffffff1681565b6000600454905090565b7fb19546dff01e856fb3f010c267a7b1c60363cf8a4664e21cc89c26224620214e610d3181611284565b610d3961113c565b60008211610d7c576040517f08c379a0000000000000000000000000000000000000000000000000000000008152600401610d7390611c25565b60405180910390fd5b816003819055507f388f446e9526fe5c9af20a5919b342370c8a7c0cb05245afe1e545658fa3cdba82604051610db29190611836565b60405180910390a15050565b60045481565b610dcc61113c565b60008111610e0f576040517f08c379a0000000000000000000000000000000000000000000000000000000008152600401610e069061199c565b60405180910390fd5b6000610e2182620f424060035461117d565b9050600260009054906101000a900473ffffffffffffffffffffffffffffffffffffffff1673ffffffffffffffffffffffffffffffffffffffff16639dc29fac33846040518363ffffffff1660e01b8152600401610e80929190611b1b565b6020604051808303816000875af1158015610e9f573d6000803e3d6000fd5b505050506040513d601f19601f82011682018060405250810190610ec39190611a82565b610f02576040517f08c379a0000000000000000000000000000000000000000000000000000000008152600401610ef990611c91565b60405180910390fd5b60018054906101000a900473ffffffffffffffffffffffffffffffffffffffff1673ffffffffffffffffffffffffffffffffffffffff1663a9059cbb33836040518363ffffffff1660e01b8152600401610f5d929190611b1b565b6020604051808303816000875af1158015610f7c573d6000803e3d6000fd5b505050506040513d601f19601f82011682018060405250810190610fa09190611a82565b610fdf576040517f08c379a0000000000000000000000000000000000000000000000000000000008152600401610fd690611afb565b60405180910390fd5b3373ffffffffffffffffffffffffffffffffffffffff167ff90e0370b338b27ab3ca77619d5a53d82e74e28d88db609d491ac86a19fba9ac8383604051611027929190611b44565b60405180910390a25050565b61103c826108a2565b61104581611284565b61104f8383611391565b50505050565b60008060018054906101000a900473ffffffffffffffffffffffffffffffffffffffff16600260009054906101000a900473ffffffffffffffffffffffffffffffffffffffff16915091509091565b7fb19546dff01e856fb3f010c267a7b1c60363cf8a4664e21cc89c26224620214e81565b6000600354905090565b60007f01ffc9a7000000000000000000000000000000000000000000000000000000007bffffffffffffffffffffffffffffffffffffffffffffffffffffffff1916827bffffffffffffffffffffffffffffffffffffffffffffffffffffffff1916149050919050565b611144610b61565b1561117b576040517fd93c066500000000000000000000000000000000000000000000000000000000815260040160405180910390fd5b565b60008083850290506000801985870982811083820303915050600081036111b8578382816111ae576111ad611cb1565b5b049250505061127d565b8084116111f1576040517f227bc15300000000000000000000000000000000000000000000000000000000815260040160405180910390fd5b600084868809905082811182039150808303925060008560000386169050808604955080840493506001818260000304019050808302841793506000600287600302189050808702600203810290508087026002038102905080870260020381029050808702600203810290508087026002038102905080870260020381029050808502955050505050505b9392505050565b61129581611290611389565b611548565b50565b60006112a48383610c66565b61137e57600160008085815260200190815260200160002060000160008473ffffffffffffffffffffffffffffffffffffffff1673ffffffffffffffffffffffffffffffffffffffff16815260200190815260200160002060006101000a81548160ff02191690831515021790555061131b611389565b73ffffffffffffffffffffffffffffffffffffffff168273ffffffffffffffffffffffffffffffffffffffff16847f2f8788117e7eff1d82e926ec794901d17c78024a50270940304540a733656f0d60405160405180910390a460019050611383565b600090505b92915050565b600033905090565b600061139d8383610c66565b1561147857600080600085815260200190815260200160002060000160008473ffffffffffffffffffffffffffffffffffffffff1673ffffffffffffffffffffffffffffffffffffffff16815260200190815260200160002060006101000a81548160ff021916908315150217905550611415611389565b73ffffffffffffffffffffffffffffffffffffffff168273ffffffffffffffffffffffffffffffffffffffff16847ff6391f5c32d9c69d2a47ea670b442974b53935d1edc7fd64eb21e047a839171b60405160405180910390a46001905061147d565b600090505b92915050565b61148b611599565b6000600160006101000a81548160ff0219169083151502179055507f5db9ee0a495bf2e6ff9c91a7834c1ba4fdd244a5e8aa4e537bd38aeae4b073aa6114cf611389565b6040516114dc9190611ce0565b60405180910390a1565b6114ee61113c565b60018060006101000a81548160ff0219169083151502179055507f62e78cea01bee320cd4e420270b5ea74000d11b0c9f74754ebdbfc544b05a258611531611389565b60405161153e9190611ce0565b60405180910390a1565b6115528282610c66565b6115955780826040517fe2517d3f00000000000000000000000000000000000000000000000000000000815260040161158c929190611cfb565b60405180910390fd5b5050565b6115a1610b61565b6115d7576040517f8dfc202b00000000000000000000000000000000000000000000000000000000815260040160405180910390fd5b565b600080fd5b60007fffffffff0000000000000000000000000000000000000000000000000000000082169050919050565b611613816115de565b811461161e57600080fd5b50565b6000813590506116308161160a565b92915050565b60006020828403121561164c5761164b6115d9565b5b600061165a84828501611621565b91505092915050565b60008115159050919050565b61167881611663565b82525050565b6000602082019050611693600083018461166f565b92915050565b6000819050919050565b6116ac81611699565b81146116b757600080fd5b50565b6000813590506116c9816116a3565b92915050565b6000602082840312156116e5576116e46115d9565b5b60006116f3848285016116ba565b91505092915050565b6000819050919050565b61170f816116fc565b811461171a57600080fd5b50565b60008135905061172c81611706565b92915050565b600060208284031215611748576117476115d9565b5b60006117568482850161171d565b91505092915050565b611768816116fc565b82525050565b6000602082019050611783600083018461175f565b92915050565b600073ffffffffffffffffffffffffffffffffffffffff82169050919050565b60006117b482611789565b9050919050565b6117c4816117a9565b81146117cf57600080fd5b50565b6000813590506117e1816117bb565b92915050565b600080604083850312156117fe576117fd6115d9565b5b600061180c8582860161171d565b925050602061181d858286016117d2565b9150509250929050565b61183081611699565b82525050565b600060208201905061184b6000830184611827565b92915050565b6000819050919050565b600061187661187161186c84611789565b611851565b611789565b9050919050565b60006118888261185b565b9050919050565b600061189a8261187d565b9050919050565b6118aa8161188f565b82525050565b60006020820190506118c560008301846118a1565b92915050565b60006118d68261187d565b9050919050565b6118e6816118cb565b82525050565b600060208201905061190160008301846118dd565b92915050565b611910816117a9565b82525050565b600060408201905061192b6000830185611907565b6119386020830184611907565b9392505050565b600082825260208201905092915050565b7f416d6f756e74206d75737420626520706f736974697665000000000000000000600082015250565b600061198660178361193f565b915061199182611950565b602082019050919050565b600060208201905081810360008301526119b581611979565b9050919050565b7f4e487b7100000000000000000000000000000000000000000000000000000000600052601160045260246000fd5b60006119f682611699565b9150611a0183611699565b9250828203905081811115611a1957611a186119bc565b5b92915050565b6000606082019050611a346000830186611907565b611a416020830185611907565b611a4e6040830184611827565b949350505050565b611a5f81611663565b8114611a6a57600080fd5b50565b600081519050611a7c81611a56565b92915050565b600060208284031215611a9857611a976115d9565b5b6000611aa684828501611a6d565b91505092915050565b7f55534443207472616e73666572206661696c6564000000000000000000000000600082015250565b6000611ae560148361193f565b9150611af082611aaf565b602082019050919050565b60006020820190508181036000830152611b1481611ad8565b9050919050565b6000604082019050611b306000830185611907565b611b3d6020830184611827565b9392505050565b6000604082019050611b596000830185611827565b611b666020830184611827565b9392505050565b7f5461782063616e6e6f7420657863656564203130302500000000000000000000600082015250565b6000611ba360168361193f565b9150611bae82611b6d565b602082019050919050565b60006020820190508181036000830152611bd281611b96565b9050919050565b7f45786368616e67652072617465206d75737420626520706f7369746976650000600082015250565b6000611c0f601e8361193f565b9150611c1a82611bd9565b602082019050919050565b60006020820190508181036000830152611c3e81611c02565b9050919050565b7f424c544d206275726e206661696c656400000000000000000000000000000000600082015250565b6000611c7b60108361193f565b9150611c8682611c45565b602082019050919050565b60006020820190508181036000830152611caa81611c6e565b9050919050565b7f4e487b7100000000000000000000000000000000000000000000000000000000600052601260045260246000fd5b6000602082019050611cf56000830184611907565b92915050565b6000604082019050611d106000830185611907565b611d1d602083018461175f565b939250505056fea2646970667358221220c0650ee090ebe831b4231a6321f33e3783e08c8e3f690b0e7a1e311c2c78d10064736f6c63430008180033",
  "linkReferences": {},
  "deployedLinkReferences": {}
}